{
  "contractName": "SquareVerifier",
  "abi": [
    {
      "constant": true,
      "inputs": [
        {
          "internalType": "uint256[2]",
          "name": "a",
          "type": "uint256[2]"
        },
        {
          "internalType": "uint256[2][2]",
          "name": "b",
          "type": "uint256[2][2]"
        },
        {
          "internalType": "uint256[2]",
          "name": "c",
          "type": "uint256[2]"
        },
        {
          "internalType": "uint256[2]",
          "name": "input",
          "type": "uint256[2]"
        }
      ],
      "name": "verifyTx",
      "outputs": [
        {
          "internalType": "bool",
          "name": "r",
          "type": "bool"
        }
      ],
      "payable": false,
      "stateMutability": "view",
      "type": "function"
    }
  ],
  "bytecode": "0x608060405234801561001057600080fd5b50611089806100206000396000f3fe608060405234801561001057600080fd5b506004361061002b5760003560e01c8063621e9ec014610030575b600080fd5b61018f600480360361014081101561004757600080fd5b8101908080604001906002806020026040519081016040528092919082600260200280828437600081840152601f19601f82011690508083019250505050505091929192908060800190600280602002604051908101604052809291906000905b828210156100fc578382604002016002806020026040519081016040528092919082600260200280828437600081840152601f19601f820116905080830192505050505050815260200190600101906100a8565b50505050919291929080604001906002806020026040519081016040528092919082600260200280828437600081840152601f19601f820116905080830192505050505050919291929080604001906002806020026040519081016040528092919082600260200280828437600081840152601f19601f82011690508083019250505050505091929192905050506101a9565b604051808215151515815260200191505060405180910390f35b60006101b3610ef8565b6040518060400160405280876000600281106101cb57fe5b60200201518152602001876001600281106101e257fe5b60200201518152508160000181905250604051806040016040528060405180604001604052808860006002811061021557fe5b602002015160006002811061022657fe5b602002015181526020018860006002811061023d57fe5b602002015160016002811061024e57fe5b6020020151815250815260200160405180604001604052808860016002811061027357fe5b602002015160006002811061028457fe5b602002015181526020018860016002811061029b57fe5b60200201516001600281106102ac57fe5b602002015181525081525081602001819052506040518060400160405280856000600281106102d757fe5b60200201518152602001856001600281106102ee57fe5b60200201518152508160400181905250606060026040519080825280602002602001820160405280156103305781602001602082028038833980820191505090505b50905060008090505b60028110156103785784816002811061034e57fe5b602002015182828151811061035f57fe5b6020026020010181815250508080600101915050610339565b50600061038582846103a5565b14156103965760019250505061039d565b6000925050505b949350505050565b6000807f30644e72e131a029b85045b68181585d2833e84879b9709143e1f593f000000190506103d3610f2b565b6103db610517565b90508060800151516001865101146103f257600080fd5b6103fa610f72565b6040518060400160405280600081526020016000815250905060008090505b8651811015610490578387828151811061042f57fe5b60200260200101511061044157600080fd5b6104818261047c8560800151600185018151811061045b57fe5b60200260200101518a858151811061046f57fe5b6020026020010151610964565b6109f6565b91508080600101915050610419565b506104b38183608001516000815181106104a657fe5b60200260200101516109f6565b90506104f9856000015186602001516104cb84610aa7565b85604001516104dd8a60400151610aa7565b87606001516104ef8960000151610aa7565b8960200151610b41565b6105095760019350505050610511565b600093505050505b92915050565b61051f610f2b565b60405180604001604052807f0b980e0df4518dabcf958552790f650b5a97acc83765e7b5a77302638cd3a9ae81526020017f2155528f4560f780dc8c4580f5b754bc4f6f4063de1e86eed1d71f6d4fd922e68152508160000181905250604051806040016040528060405180604001604052807f03c261af85934d4d883e355ac393390cb6a28708dbb0b83db8c45dbfd90917c681526020017f0206b4baf89e3bb90fa8190efabb6cf0c5584a7f3471817a7e5ba2f9d3b076ee815250815260200160405180604001604052807f13c4e08605f526c014a283ff1b1ce89888f3a04d7eb11d8ee71c1409e64a794d81526020017f059564d4b13349c7766d08e2b720d0910625613db41d7194d79a360dd8e505728152508152508160200181905250604051806040016040528060405180604001604052807f169fb6d8bc5e3160db7dbe79ef10212ba3ddb18e08bbeac3a3dc202a9d7030c781526020017f1e216824010b2a7f57392037325652792d0df667d95f1a860da2231857b3a0ff815250815260200160405180604001604052807f0ea6de9c1d711083291932575dd69f43f94fc767783f6c10728c3a3e3526b0a381526020017f11ef911cfebdb32a30586cf83357b5658657aba76b8554312f05b9d0b4592ca68152508152508160400181905250604051806040016040528060405180604001604052807f044773883ce72bf9f3be2394ca11984354b0e43365a9552f4f7cf1bcffa4ede181526020017f23ae48fcdf8601496750aa54c9d7b69ee8980db767c55d8a30d9af610d0b4c9f815250815260200160405180604001604052807f13587eb06b58461185389dc2832f82618a99ca692df7ba5087c4ee4c0163c78481526020017f294ce77635ef17d70773fa442b578d30c605dd58c873ce6163dad47eadb59d9a8152508152508160600181905250600360405190808252806020026020018201604052801561080657816020015b6107f3610f8c565b8152602001906001900390816107eb5790505b50816080018190525060405180604001604052807f02a7b7307d55a61088bdc70a73a4ebf6475bcbd5739cc0b4c3a91da39c8fd26e81526020017f1aec3fdff0f3f3c081a0d206333dd44804e88b8e90d8cfb21daabc074c877539815250816080015160008151811061087557fe5b602002602001018190525060405180604001604052807e2182b5136c4b39518665a7cc59f41262c318621d103aab430a6e99049bcf0181526020017f2d240cba0903f5aebb7da274cfdd7508cd9e5d5d8e89bb3ce4109e221acf482b81525081608001516001815181106108e557fe5b602002602001018190525060405180604001604052807f02ac9b4f43c17bf379e4d049dc2a8ffb3bb82679a88c438cb35af096a343ca5d81526020017f0a3f8b542f862b04a34d264f524fdda0a6d9c415670430c52ff4a94bd502d896815250816080015160028151811061095657fe5b602002602001018190525090565b61096c610f72565b610974610fa6565b83600001518160006003811061098657fe5b6020020181815250508360200151816001600381106109a157fe5b60200201818152505082816002600381106109b857fe5b602002018181525050600060608360808460076107d05a03fa905080600081146109e1576109e3565bfe5b50806109ee57600080fd5b505092915050565b6109fe610f72565b610a06610fc8565b836000015181600060048110610a1857fe5b602002018181525050836020015181600160048110610a3357fe5b602002018181525050826000015181600260048110610a4e57fe5b602002018181525050826020015181600360048110610a6957fe5b602002018181525050600060608360c08460066107d05a03fa90508060008114610a9257610a94565bfe5b5080610a9f57600080fd5b505092915050565b610aaf610f72565b60007f30644e72e131a029b85045b68181585d97816a916871ca8d3c208c16d87cfd47905060008360000151148015610aec575060008360200151145b15610b10576040518060400160405280600081526020016000815250915050610b3c565b60405180604001604052808460000151815260200182856020015181610b3257fe5b0683038152509150505b919050565b600060606004604051908082528060200260200182016040528015610b8057816020015b610b6d610f8c565b815260200190600190039081610b655790505b50905060606004604051908082528060200260200182016040528015610bc057816020015b610bad610fea565b815260200190600190039081610ba55790505b5090508a82600081518110610bd157fe5b60200260200101819052508882600181518110610bea57fe5b60200260200101819052508682600281518110610c0357fe5b60200260200101819052508482600381518110610c1c57fe5b60200260200101819052508981600081518110610c3557fe5b60200260200101819052508781600181518110610c4e57fe5b60200260200101819052508581600281518110610c6757fe5b60200260200101819052508381600381518110610c8057fe5b6020026020010181905250610c958282610ca5565b9250505098975050505050505050565b60008151835114610cb557600080fd5b6000835190506000600682029050606081604051908082528060200260200182016040528015610cf45781602001602082028038833980820191505090505b50905060008090505b83811015610e9a57868181518110610d1157fe5b602002602001015160000151826000600684020181518110610d2f57fe5b602002602001018181525050868181518110610d4757fe5b602002602001015160200151826001600684020181518110610d6557fe5b602002602001018181525050858181518110610d7d57fe5b602002602001015160000151600160028110610d9557fe5b6020020151826002600684020181518110610dac57fe5b602002602001018181525050858181518110610dc457fe5b602002602001015160000151600060028110610ddc57fe5b6020020151826003600684020181518110610df357fe5b602002602001018181525050858181518110610e0b57fe5b602002602001015160200151600160028110610e2357fe5b6020020151826004600684020181518110610e3a57fe5b602002602001018181525050858181518110610e5257fe5b602002602001015160200151600060028110610e6a57fe5b6020020151826005600684020181518110610e8157fe5b6020026020010181815250508080600101915050610cfd565b50610ea3611010565b6000602082602086026020860160086107d05a03fa90508060008114610ec857610eca565bfe5b5080610ed557600080fd5b600082600060018110610ee457fe5b602002015114159550505050505092915050565b6040518060600160405280610f0b610f8c565b8152602001610f18610fea565b8152602001610f25610f8c565b81525090565b6040518060a00160405280610f3e610f8c565b8152602001610f4b610fea565b8152602001610f58610fea565b8152602001610f65610fea565b8152602001606081525090565b604051806040016040528060008152602001600081525090565b604051806040016040528060008152602001600081525090565b6040518060600160405280600390602082028038833980820191505090505090565b6040518060800160405280600490602082028038833980820191505090505090565b6040518060400160405280610ffd611032565b815260200161100a611032565b81525090565b6040518060200160405280600190602082028038833980820191505090505090565b604051806040016040528060029060208202803883398082019150509050509056fea265627a7a72315820c22ca1d7e56ea9de7c7b72585361a3bee228191999fd84e477bebc66dd9ce44064736f6c63430005100032",
  "source": "pragma solidity >=0.4.21 <0.6.0;\n\nimport \"./ERC721Mintable.sol\";\nimport \"./Verifier.sol\";\n\n// define a contract call to the zokrates generated solidity contract <Verifier> or <renamedVerifier>\ncontract SquareVerifier is Verifier {\n\n}\n\n// TODO define a contract call to the zokrates generated solidity contract <Verifier> or <renamedVerifier>\n// TODO define another contract named SolnSquareVerifier that inherits from your ERC721Mintable class\n// TODO define a solutions struct that can hold an index & an address\n// TODO define an array of the above struct\n// TODO define a mapping to store unique solutions submitted\n// TODO Create an event to emit when a solution is added\n// TODO Create a function to add the solutions to the array and emit the event\n// TODO Create a function to mint new NFT only after the solution has been verified\n//  - make sure the solution is unique (has not been used before)\n//  - make sure you handle metadata as well as tokenSuplly\ncontract SolnSquareVerifier is JSONToken {\n    SquareVerifier squareVerifier;\n\n    constructor(\n        string memory name,\n        string memory symbol,\n        string memory baseTokenURI\n    ) public {\n        squareVerifier = SquareVerifier(msg.sender);\n    }\n\n    struct Solution {\n        uint256 index;\n        address _address;\n    }\n\n    Solution[] solutions;\n\n    mapping(bytes32 => Solution) submittedSolutions;\n\n    event SolutionAdded(uint256 index, address _address);\n\n    event TokenMinted(uint256 index, address _address);\n\n    function addSolution(\n        uint256 _index,\n        address _address,\n        bytes32 key\n    ) public {\n        Solution memory solution = Solution(_index, _address);\n        submittedSolutions[key] = solution;\n        solutions.push(solution);\n        emit SolutionAdded(_index, _address);\n    }\n\n    function mintNFT(\n        address to,\n        uint256 tokenId,\n        uint256[2] memory a,\n        uint256[2][2] memory b,\n        uint256[2] memory c,\n        uint256[2] memory input\n    ) public {\n        bool verified = squareVerifier.verifyTx(a, b, c, input);\n        require(verified, \"Verification failed\");\n\n        bytes32 _key = generateKey(a, b, c, input);\n        require(\n            submittedSolutions[_key]._address == address(0x0),\n            \"Solution exists\"\n        );\n\n        addSolution(tokenId, to, _key);\n        super.mint(to, tokenId);\n        emit TokenMinted(tokenId, to);\n    }\n\n    function generateKey(\n        uint256[2] memory a,\n        uint256[2][2] memory b,\n        uint256[2] memory c,\n        uint256[2] memory input\n    ) public pure returns (bytes32) {\n        return keccak256(abi.encodePacked(a, b, c, input));\n    }\n}\n",
  "sourcePath": "/Users/home/Desktop/Blockchain-Capstone/eth-contracts/contracts/SolnSquareVerifier.sol",
  "compiler": {
    "name": "solc",
    "version": "0.5.16+commit.9c3226ce.Emscripten.clang"
  },
  "schemaVersion": "3.4.4",
  "updatedAt": "2022-02-20T23:03:24.343Z",
  "devdoc": {
    "methods": {}
  },
  "userdoc": {
    "methods": {}
  }
}